:100000000C942A000C9449000C9447000C9447006F
:100010000C9447000C9447000C9447000C94470044
:100020000C9447000C9447000C9447000C94470034
:100030000C9447000C9447000C9447000C94470024
:100040000C9447000C9447000C9447000C94470014
:100050000C94470011241FBECFE5D8E0DEBFCDBF12
:1000600010E0A0E6B0E0ECE9F1E002C005900D92EE
:10007000A236B107D9F710E0A2E6B0E001C01D92A8
:10008000A736B107E1F70E94AA000C94CC000C94AB
:1000900000001F920F920FB60F9211248F939F931F
:1000A000EF93FF93DF93CF93CDB7DEB780916400DA
:1000B000882369F4E4E4F0E08081882F90E0909355
:1000C00063008093620081E0809364000BC0E4E4ED
:1000D000F0E08081882F90E0909361008093600031
:1000E00010926400CF91DF91FF91EF919F918F91DA
:1000F0000F900FBE0F901F901895DF93CF93CDB741
:10010000DEB7A5E5B0E0E5E5F0E0808183608C93A3
:10011000ABE5B0E0EBE5F0E0808180648C93AFE587
:10012000B0E0EFE5F0E0808180688C93CF91DF91C3
:100130000895DF93CF93CDB7DEB7A5E4B0E0E5E453
:10014000F0E0808185688C93E4E4F0E01082CF9148
:10015000DF910895DF93CF9300D000D00F92CDB7F9
:10016000DEB70E947D000E949900EAE3F0E081E0A2
:100170008083EBE3F0E01082E4E4F0E08081E4E4EB
:10018000F0E08081E4E4F0E08081E4E4F0E080816C
:0C019000E4E4F0E08081F0CFF894FFCFB1
:02019C00841EBF
:00000001FF
